地址               大小               页面信息                                           内容        类型  页面保护  初始保护
0000000000010000 0000000000010000                                                               MAP -RW-- -RW--
0000000000020000 0000000000001000                                                               MAP -R--- -R---
0000000000030000 000000000001D000                                                               MAP -R--- -R---
0000000000050000 0000000000004000                                                               MAP -R--- -R---
0000000000060000 0000000000002000                                                               PRV -RW-- -RW--
0000000000070000 0000000000001000                                                               MAP -R--- -R---
0000000000080000 0000000000001000                                                               MAP -R--- -R---
00000000000E0000 000000000000C000                                                               PRV -RW-- -RW--
00000000000EC000 00000000000F4000 保留 (00000000000E0000)                                         PRV       -RW--
0000000000200000 0000000000024000 保留                                                            PRV       -RW--
0000000000224000 0000000000009000 PEB                                                           PRV -RW-- -RW--
000000000022D000 00000000001D3000 保留 (0000000000200000)                                         PRV       -RW--
0000000000400000 0000000000001000 hello.exe                                                     IMG -R--- ERWC-
0000000000401000 0000000000002000  ".text"                                            可执行代码     IMG ER--- ERWC-
0000000000403000 0000000000001000  ".data"                                            已初始化的数据   IMG -RWC- ERWC-
0000000000404000 0000000000001000  ".rdata"                                           只读的已初始化数据 IMG -R--- ERWC-
0000000000405000 0000000000001000  ".pdata"                                           异常信息      IMG -R--- ERWC-
0000000000406000 0000000000001000  ".xdata"                                           异常信息      IMG -R--- ERWC-
0000000000407000 0000000000001000  ".bss"                                             未初始化的数据   IMG -RW-- ERWC-
0000000000408000 0000000000001000  ".idata"                                           导入表       IMG -RW-- ERWC-
0000000000409000 0000000000001000  ".CRT"                                                       IMG -RWC- ERWC-
000000000040A000 0000000000001000  ".tls"                                             线程本地存储    IMG -RWC- ERWC-
000000000040B000 0000000000001000  "/4"                                                         IMG -R--- ERWC-
000000000040C000 0000000000007000  "/19"                                                        IMG -R--- ERWC-
0000000000413000 0000000000001000  "/31"                                                        IMG -R--- ERWC-
0000000000414000 0000000000001000  "/45"                                                        IMG -R--- ERWC-
0000000000415000 0000000000001000  "/57"                                                        IMG -R--- ERWC-
0000000000416000 0000000000001000  "/70"                                                        IMG -R--- ERWC-
0000000000420000 00000000001FA000 保留                                                            PRV       -RW--
000000000061A000 0000000000006000 线程 2C94 堆栈                                                    PRV -RW-G -RW--
0000000000620000 00000000000C9000 \Device\HarddiskVolume7\Windows\System32\locale.nls           MAP -R--- -R---
00000000006F0000 00000000001F9000 保留                                                            PRV       -RW--
00000000008E9000 0000000000007000 线程 3850 堆栈                                                    PRV -RW-G -RW--
00000000008F0000 00000000001FC000 保留                                                            PRV       -RW--
0000000000AEC000 0000000000004000 线程 3CEC 堆栈                                                    PRV -RW-G -RW--
0000000000AF0000 00000000001FB000 保留                                                            PRV       -RW--
0000000000CEB000 0000000000005000 线程 3A14 堆栈                                                    PRV -RW-G -RW--
0000000061440000 0000000000001000 libgcc_s_seh-1.dll                                            IMG -R--- ERWC-
0000000061441000 0000000000010000  ".text"                                            可执行代码     IMG ER--- ERWC-
0000000061451000 0000000000001000  ".data"                                            已初始化的数据   IMG -RWC- ERWC-
0000000061452000 0000000000001000  ".rdata"                                           只读的已初始化数据 IMG -R--- ERWC-
0000000061453000 0000000000001000  ".pdata"                                           异常信息      IMG -R--- ERWC-
0000000061454000 0000000000001000  ".xdata"                                           异常信息      IMG -R--- ERWC-
0000000061455000 0000000000001000  ".bss"                                             未初始化的数据   IMG -RW-- ERWC-
0000000061456000 0000000000001000  ".edata"                                           导出表       IMG -R--- ERWC-
0000000061457000 0000000000001000  ".idata"                                           导入表       IMG -RW-- ERWC-
0000000061458000 0000000000001000  ".CRT"                                                       IMG -RWC- ERWC-
0000000061459000 0000000000001000  ".tls"                                             线程本地存储    IMG -RWC- ERWC-
000000006145A000 0000000000001000  ".reloc"                                           基重定位数据    IMG -R--- ERWC-
000000006FC40000 0000000000001000 libstdc++-6.dll                                               IMG -R--- ERWC-
000000006FC41000 00000000000C9000  ".text"                                            可执行代码     IMG ER--- ERWC-
000000006FD0A000 0000000000004000  ".data"                                            已初始化的数据   IMG -RWC- ERWC-
000000006FD0E000 0000000000016000  ".rdata"                                           只读的已初始化数据 IMG -R--- ERWC-
000000006FD24000 000000000000E000  ".pdata"                                           异常信息      IMG -R--- ERWC-
000000006FD32000 0000000000013000  ".xdata"                                           异常信息      IMG -R--- ERWC-
000000006FD45000 0000000000002000  ".bss"                                             未初始化的数据   IMG -RW-- ERWC-
000000006FD47000 0000000000057000  ".edata"                                           导出表       IMG -R--- ERWC-
000000006FD9E000 0000000000002000  ".idata"                                           导入表       IMG -RW-- ERWC-
000000006FDA0000 0000000000001000  ".CRT"                                                       IMG -RWC- ERWC-
000000006FDA1000 0000000000001000  ".tls"                                             线程本地存储    IMG -RWC- ERWC-
000000006FDA2000 0000000000002000  ".reloc"                                           基重定位数据    IMG -R--- ERWC-
000000007FFE0000 0000000000001000 KUSER_SHARED_DATA                                             PRV -R--- -R---
000000007FFE2000 0000000000001000                                                               PRV -R--- -R---
00007FF4FDE80000 0000000000005000                                                               MAP -R--- -R---
00007FF4FDE85000 00000000000FB000 保留 (00007FF4FDE80000)                                         MAP       -R---
00007FF4FDF80000 0000000100020000 保留                                                            PRV       -RW--
00007FF5FDFA0000 0000000002000000 保留                                                            PRV       -RW--
00007FF5FFFA0000 0000000000001000                                                               PRV -RW-- -RW--
00007FF5FFFB0000 0000000000001000                                                               MAP -R--- -R---
00007FF5FFFC0000 0000000000033000                                                               MAP -R--- -R---
00007FFE26E80000 0000000000001000 msvcp_win.dll                                                 IMG -R--- ERWC-
00007FFE26E81000 0000000000054000  ".text"                                            可执行代码     IMG ER--- ERWC-
00007FFE26ED5000 000000000003C000  ".rdata"                                           只读的已初始化数据 IMG -R--- ERWC-
00007FFE26F11000 0000000000004000  ".data"                                            已初始化的数据   IMG -RWC- ERWC-
00007FFE26F15000 0000000000005000  ".pdata"                                           异常信息      IMG -R--- ERWC-
00007FFE26F1A000 0000000000001000  ".didat"                                                     IMG -R--- ERWC-
00007FFE26F1B000 0000000000001000  ".rsrc"                                            资源        IMG -R--- ERWC-
00007FFE26F1C000 0000000000001000  ".reloc"                                           基重定位数据    IMG -R--- ERWC-
00007FFE26F20000 0000000000001000 win32u.dll                                                    IMG -R--- ERWC-
00007FFE26F21000 000000000000B000  ".text"                                            可执行代码     IMG ER--- ERWC-
00007FFE26F2C000 000000000000F000  ".rdata"                                           只读的已初始化数据 IMG -R--- ERWC-
00007FFE26F3B000 0000000000001000  ".data"                                            已初始化的数据   IMG -RW-- ERWC-
00007FFE26F3C000 0000000000004000  ".pdata"                                           异常信息      IMG -R--- ERWC-
00007FFE26F40000 0000000000001000  ".rsrc"                                            资源        IMG -R--- ERWC-
00007FFE26F41000 0000000000001000  ".reloc"                                           基重定位数据    IMG -R--- ERWC-
00007FFE271F0000 0000000000001000 gdi32full.dll                                                 IMG -R--- ERWC-
00007FFE271F1000 000000000009C000  ".text"                                            可执行代码     IMG ER--- ERWC-
00007FFE2728D000 000000000004D000  ".rdata"                                           只读的已初始化数据 IMG -R--- ERWC-
00007FFE272DA000 0000000000005000  ".data"                                            已初始化的数据   IMG -RW-- ERWC-
00007FFE272DF000 0000000000007000  ".pdata"                                           异常信息      IMG -R--- ERWC-
00007FFE272E6000 0000000000001000  ".didat"                                                     IMG -R--- ERWC-
00007FFE272E7000 0000000000012000  ".rsrc"                                            资源        IMG -R--- ERWC-
00007FFE272F9000 0000000000002000  ".reloc"                                           基重定位数据    IMG -R--- ERWC-
00007FFE27300000 0000000000001000 kernelbase.dll                                                IMG -R--- ERWC-
00007FFE27301000 0000000000111000  ".text"                                            可执行代码     IMG ER--- ERWC-
00007FFE27412000 0000000000178000  ".rdata"                                           只读的已初始化数据 IMG -R--- ERWC-
00007FFE2758A000 0000000000005000  ".data"                                            已初始化的数据   IMG -RW-- ERWC-
00007FFE2758F000 000000000000F000  ".pdata"                                           异常信息      IMG -R--- ERWC-
00007FFE2759E000 0000000000001000  ".didat"                                                     IMG -R--- ERWC-
00007FFE2759F000 0000000000001000  ".rsrc"                                            资源        IMG -R--- ERWC-
00007FFE275A0000 0000000000028000  ".reloc"                                           基重定位数据    IMG -R--- ERWC-
00007FFE275D0000 0000000000001000 ucrtbase.dll                                                  IMG -R--- ERWC-
00007FFE275D1000 00000000000B4000  ".text"                                            可执行代码     IMG ER--- ERWC-
00007FFE27685000 000000000003A000  ".rdata"                                           只读的已初始化数据 IMG -R--- ERWC-
00007FFE276BF000 0000000000003000  ".data"                                            已初始化的数据   IMG -RW-- ERWC-
00007FFE276C2000 000000000000C000  ".pdata"                                           异常信息      IMG -R--- ERWC-
00007FFE276CE000 0000000000001000  ".rsrc"                                            资源        IMG -R--- ERWC-
00007FFE276CF000 0000000000001000  ".reloc"                                           基重定位数据    IMG -R--- ERWC-
00007FFE27F90000 0000000000001000 user32.dll                                                    IMG -R--- ERWC-
00007FFE27F91000 0000000000090000  ".text"                                            可执行代码     IMG ER--- ERWC-
00007FFE28021000 0000000000021000  ".rdata"                                           只读的已初始化数据 IMG -R--- ERWC-
00007FFE28042000 0000000000002000  ".data"                                            已初始化的数据   IMG -RW-- ERWC-
00007FFE28044000 0000000000008000  ".pdata"                                           异常信息      IMG -R--- ERWC-
00007FFE2804C000 0000000000001000  ".didat"                                                     IMG -R--- ERWC-
00007FFE2804D000 00000000000E2000  ".rsrc"                                            资源        IMG -R--- ERWC-
00007FFE2812F000 0000000000001000  ".reloc"                                           基重定位数据    IMG -R--- ERWC-
00007FFE28F30000 0000000000001000 msvcrt.dll                                                    IMG -R--- ERWC-
00007FFE28F31000 0000000000075000  ".text"                                            可执行代码     IMG ER--- ERWC-
00007FFE28FA6000 0000000000019000  ".rdata"                                           只读的已初始化数据 IMG -R--- ERWC-
00007FFE28FBF000 0000000000008000  ".data"                                            已初始化的数据   IMG -RWC- ERWC-
00007FFE28FC7000 0000000000005000  ".pdata"                                           异常信息      IMG -R--- ERWC-
00007FFE28FCC000 0000000000001000  ".rsrc"                                            资源        IMG -R--- ERWC-
00007FFE28FCD000 0000000000001000  ".reloc"                                           基重定位数据    IMG -R--- ERWC-
00007FFE295E0000 0000000000001000 kernel32.dll                                                  IMG -R--- ERWC-
00007FFE295E1000 000000000007F000  ".text"                                            可执行代码     IMG ER--- ERWC-
00007FFE29660000 0000000000033000  ".rdata"                                           只读的已初始化数据 IMG -R--- ERWC-
00007FFE29693000 0000000000002000  ".data"                                            已初始化的数据   IMG -RW-- ERWC-
00007FFE29695000 0000000000006000  ".pdata"                                           异常信息      IMG -R--- ERWC-
00007FFE2969B000 0000000000001000  ".didat"                                                     IMG -R--- ERWC-
00007FFE2969C000 0000000000001000  ".rsrc"                                            资源        IMG -R--- ERWC-
00007FFE2969D000 0000000000001000  ".reloc"                                           基重定位数据    IMG -R--- ERWC-
00007FFE296A0000 0000000000001000 gdi32.dll                                                     IMG -R--- ERWC-
00007FFE296A1000 000000000000E000  ".text"                                            可执行代码     IMG ER--- ERWC-
00007FFE296AF000 0000000000014000  ".rdata"                                           只读的已初始化数据 IMG -R--- ERWC-
00007FFE296C3000 0000000000001000  ".data"                                            已初始化的数据   IMG -RW-- ERWC-
00007FFE296C4000 0000000000002000  ".pdata"                                           异常信息      IMG -R--- ERWC-
00007FFE296C6000 0000000000002000  ".didat"                                                     IMG -R--- ERWC-
00007FFE296C8000 0000000000001000  ".rsrc"                                            资源        IMG -R--- ERWC-
00007FFE296C9000 0000000000001000  ".reloc"                                           基重定位数据    IMG -R--- ERWC-
00007FFE29710000 0000000000001000 ntdll.dll                                                     IMG -R--- ERWC-
00007FFE29711000 0000000000119000  ".text"                                            可执行代码     IMG ER--- ERWC-
00007FFE2982A000 0000000000001000  "PAGE"                                                       IMG ER--- ERWC-
00007FFE2982B000 0000000000001000  "RT"                                                         IMG ER--- ERWC-
00007FFE2982C000 0000000000048000  ".rdata"                                           只读的已初始化数据 IMG -R--- ERWC-
00007FFE29874000 000000000000C000  ".data"                                            已初始化的数据   IMG -RW-- ERWC-
00007FFE29880000 000000000000F000  ".pdata"                                           异常信息      IMG -R--- ERWC-
00007FFE2988F000 0000000000004000  ".mrdata"                                                    IMG -R--- ERWC-
00007FFE29893000 0000000000001000  ".00cfg"                                                     IMG -R--- ERWC-
00007FFE29894000 0000000000070000  ".rsrc"                                            资源        IMG -R--- ERWC-
00007FFE29904000 0000000000001000  ".reloc"                                           基重定位数据    IMG -R--- ERWC-
